{
  "_format": "hh-sol-artifact-1",
  "contractName": "Marketplace",
  "sourceName": "src/backend/contracts/Marketplace.sol",
  "abi": [
    {
      "inputs": [
        {
          "internalType": "uint256",
          "name": "_feePercent",
          "type": "uint256"
        }
      ],
      "stateMutability": "nonpayable",
      "type": "constructor"
    },
    {
      "anonymous": false,
      "inputs": [
        {
          "indexed": false,
          "internalType": "uint256",
          "name": "itemId",
          "type": "uint256"
        },
        {
          "indexed": true,
          "internalType": "address",
          "name": "nft",
          "type": "address"
        },
        {
          "indexed": false,
          "internalType": "uint256",
          "name": "tokenId",
          "type": "uint256"
        },
        {
          "indexed": false,
          "internalType": "uint256",
          "name": "price",
          "type": "uint256"
        },
        {
          "indexed": true,
          "internalType": "address",
          "name": "seller",
          "type": "address"
        },
        {
          "indexed": true,
          "internalType": "address",
          "name": "buyer",
          "type": "address"
        }
      ],
      "name": "Bought",
      "type": "event"
    },
    {
      "anonymous": false,
      "inputs": [
        {
          "indexed": true,
          "internalType": "uint256",
          "name": "itemId",
          "type": "uint256"
        },
        {
          "indexed": true,
          "internalType": "address",
          "name": "nft",
          "type": "address"
        },
        {
          "indexed": false,
          "internalType": "uint256",
          "name": "tokenId",
          "type": "uint256"
        },
        {
          "indexed": true,
          "internalType": "address",
          "name": "seller",
          "type": "address"
        }
      ],
      "name": "ItemDeleted",
      "type": "event"
    },
    {
      "anonymous": false,
      "inputs": [
        {
          "indexed": false,
          "internalType": "uint256",
          "name": "itemId",
          "type": "uint256"
        },
        {
          "indexed": true,
          "internalType": "address",
          "name": "nft",
          "type": "address"
        },
        {
          "indexed": false,
          "internalType": "uint256",
          "name": "tokenId",
          "type": "uint256"
        },
        {
          "indexed": false,
          "internalType": "uint256",
          "name": "price",
          "type": "uint256"
        },
        {
          "indexed": true,
          "internalType": "address",
          "name": "seller",
          "type": "address"
        }
      ],
      "name": "Offered",
      "type": "event"
    },
    {
      "inputs": [
        {
          "internalType": "uint256",
          "name": "_itemId",
          "type": "uint256"
        }
      ],
      "name": "deleteItem",
      "outputs": [],
      "stateMutability": "nonpayable",
      "type": "function"
    },
    {
      "inputs": [],
      "name": "feeAccount",
      "outputs": [
        {
          "internalType": "address payable",
          "name": "",
          "type": "address"
        }
      ],
      "stateMutability": "view",
      "type": "function"
    },
    {
      "inputs": [],
      "name": "feePercent",
      "outputs": [
        {
          "internalType": "uint256",
          "name": "",
          "type": "uint256"
        }
      ],
      "stateMutability": "view",
      "type": "function"
    },
    {
      "inputs": [
        {
          "internalType": "uint256",
          "name": "_itemId",
          "type": "uint256"
        }
      ],
      "name": "getTotalPrice",
      "outputs": [
        {
          "internalType": "uint256",
          "name": "",
          "type": "uint256"
        }
      ],
      "stateMutability": "view",
      "type": "function"
    },
    {
      "inputs": [],
      "name": "itemCount",
      "outputs": [
        {
          "internalType": "uint256",
          "name": "",
          "type": "uint256"
        }
      ],
      "stateMutability": "view",
      "type": "function"
    },
    {
      "inputs": [
        {
          "internalType": "uint256",
          "name": "",
          "type": "uint256"
        }
      ],
      "name": "items",
      "outputs": [
        {
          "internalType": "uint256",
          "name": "itemId",
          "type": "uint256"
        },
        {
          "internalType": "contract IERC721",
          "name": "nft",
          "type": "address"
        },
        {
          "internalType": "uint256",
          "name": "tokenId",
          "type": "uint256"
        },
        {
          "internalType": "uint256",
          "name": "price",
          "type": "uint256"
        },
        {
          "internalType": "address payable",
          "name": "seller",
          "type": "address"
        },
        {
          "internalType": "bool",
          "name": "sold",
          "type": "bool"
        }
      ],
      "stateMutability": "view",
      "type": "function"
    },
    {
      "inputs": [
        {
          "internalType": "contract IERC721",
          "name": "_nft",
          "type": "address"
        },
        {
          "internalType": "uint256",
          "name": "_tokenId",
          "type": "uint256"
        },
        {
          "internalType": "uint256",
          "name": "_price",
          "type": "uint256"
        }
      ],
      "name": "makeItem",
      "outputs": [],
      "stateMutability": "nonpayable",
      "type": "function"
    },
    {
      "inputs": [
        {
          "internalType": "uint256",
          "name": "_itemId",
          "type": "uint256"
        }
      ],
      "name": "purchaseItem",
      "outputs": [],
      "stateMutability": "payable",
      "type": "function"
    }
  ],
  "bytecode": "0x60c06040523480156200001157600080fd5b50604051620017693803806200176983398181016040528101906200003791906200009c565b60016000819055503373ffffffffffffffffffffffffffffffffffffffff1660808173ffffffffffffffffffffffffffffffffffffffff1660601b815250508060a0818152505050620000ec565b6000815190506200009681620000d2565b92915050565b600060208284031215620000af57600080fd5b6000620000bf8482850162000085565b91505092915050565b6000819050919050565b620000dd81620000c8565b8114620000e957600080fd5b50565b60805160601c60a05161164662000123600039600081816105bd015261066e015260008181610593015261089401526116466000f3fe60806040526004361061007b5760003560e01c8063bfb231d21161004e578063bfb231d21461012a578063ca7dd3751461016c578063d38ea5bf146101a9578063fa00afc7146101c55761007b565b8063654fc8331461008057806365e17c9d146100a95780636bfb0d01146100d45780637fd6f15c146100ff575b600080fd5b34801561008c57600080fd5b506100a760048036038101906100a29190610de4565b6101ee565b005b3480156100b557600080fd5b506100be610591565b6040516100cb9190610f7f565b60405180910390f35b3480156100e057600080fd5b506100e96105b5565b6040516100f69190611108565b60405180910390f35b34801561010b57600080fd5b506101146105bb565b6040516101219190611108565b60405180910390f35b34801561013657600080fd5b50610151600480360381019061014c9190610de4565b6105df565b60405161016396959493929190611123565b60405180910390f35b34801561017857600080fd5b50610193600480360381019061018e9190610de4565b610668565b6040516101a09190611108565b60405180910390f35b6101c360048036038101906101be9190610de4565b6106cb565b005b3480156101d157600080fd5b506101ec60048036038101906101e79190610d95565b610a99565b005b60026000541415610234576040517f08c379a000000000000000000000000000000000000000000000000000000000815260040161022b906110e8565b60405180910390fd5b6002600081905550600060026000838152602001908152602001600020905060008211801561026557506001548211155b6102a4576040517f08c379a000000000000000000000000000000000000000000000000000000000815260040161029b906110c8565b60405180910390fd5b3373ffffffffffffffffffffffffffffffffffffffff168160040160009054906101000a900473ffffffffffffffffffffffffffffffffffffffff1673ffffffffffffffffffffffffffffffffffffffff1614610336576040517f08c379a000000000000000000000000000000000000000000000000000000000815260040161032d90611008565b60405180910390fd5b8060040160149054906101000a900460ff1615610388576040517f08c379a000000000000000000000000000000000000000000000000000000000815260040161037f906110a8565b60405180910390fd5b8060010160009054906101000a900473ffffffffffffffffffffffffffffffffffffffff1673ffffffffffffffffffffffffffffffffffffffff166323b872dd308360040160009054906101000a900473ffffffffffffffffffffffffffffffffffffffff1684600201546040518463ffffffff1660e01b815260040161041193929190610f9a565b600060405180830381600087803b15801561042b57600080fd5b505af115801561043f573d6000803e3d6000fd5b50505050600260008381526020019081526020016000206000808201600090556001820160006101000a81549073ffffffffffffffffffffffffffffffffffffffff0219169055600282016000905560038201600090556004820160006101000a81549073ffffffffffffffffffffffffffffffffffffffff02191690556004820160146101000a81549060ff021916905550508060040160009054906101000a900473ffffffffffffffffffffffffffffffffffffffff1673ffffffffffffffffffffffffffffffffffffffff168160010160009054906101000a900473ffffffffffffffffffffffffffffffffffffffff1673ffffffffffffffffffffffffffffffffffffffff16837fbdbcc60593bf3e40c1ff5d4d89e6a772272ec50d84dc2c39304f405696b598ca846002015460405161057d9190611108565b60405180910390a450600160008190555050565b7f000000000000000000000000000000000000000000000000000000000000000081565b60015481565b7f000000000000000000000000000000000000000000000000000000000000000081565b60026020528060005260406000206000915090508060000154908060010160009054906101000a900473ffffffffffffffffffffffffffffffffffffffff16908060020154908060030154908060040160009054906101000a900473ffffffffffffffffffffffffffffffffffffffff16908060040160149054906101000a900460ff16905086565b600060647f0000000000000000000000000000000000000000000000000000000000000000606461069991906111cc565b60026000858152602001908152602001600020600301546106ba9190611253565b6106c49190611222565b9050919050565b60026000541415610711576040517f08c379a0000000000000000000000000000000000000000000000000000000008152600401610708906110e8565b60405180910390fd5b6002600081905550600061072482610668565b9050600060026000848152602001908152602001600020905060008311801561074f57506001548311155b61078e576040517f08c379a000000000000000000000000000000000000000000000000000000000815260040161078590611088565b60405180910390fd5b813410156107d1576040517f08c379a00000000000000000000000000000000000000000000000000000000081526004016107c890611068565b60405180910390fd5b8060040160149054906101000a900460ff1615610823576040517f08c379a000000000000000000000000000000000000000000000000000000000815260040161081a90611028565b60405180910390fd5b8060040160009054906101000a900473ffffffffffffffffffffffffffffffffffffffff1673ffffffffffffffffffffffffffffffffffffffff166108fc82600301549081150290604051600060405180830381858888f19350505050158015610891573d6000803e3d6000fd5b507f000000000000000000000000000000000000000000000000000000000000000073ffffffffffffffffffffffffffffffffffffffff166108fc8260030154846108dc91906112ad565b9081150290604051600060405180830381858888f19350505050158015610907573d6000803e3d6000fd5b5060018160040160146101000a81548160ff0219169083151502179055508060010160009054906101000a900473ffffffffffffffffffffffffffffffffffffffff1673ffffffffffffffffffffffffffffffffffffffff166323b872dd303384600201546040518463ffffffff1660e01b815260040161098a93929190610fd1565b600060405180830381600087803b1580156109a457600080fd5b505af11580156109b8573d6000803e3d6000fd5b505050503373ffffffffffffffffffffffffffffffffffffffff168160040160009054906101000a900473ffffffffffffffffffffffffffffffffffffffff1673ffffffffffffffffffffffffffffffffffffffff168260010160009054906101000a900473ffffffffffffffffffffffffffffffffffffffff1673ffffffffffffffffffffffffffffffffffffffff167f8b4c9c8a607d67b321582dd8461041b1dc2ceeca70c8b7f37f8e02095cf2e76d8685600201548660030154604051610a8493929190611184565b60405180910390a45050600160008190555050565b60026000541415610adf576040517f08c379a0000000000000000000000000000000000000000000000000000000008152600401610ad6906110e8565b60405180910390fd5b600260008190555060008111610b2a576040517f08c379a0000000000000000000000000000000000000000000000000000000008152600401610b2190611048565b60405180910390fd5b60016000815480929190610b3d906113a7565b91905055508273ffffffffffffffffffffffffffffffffffffffff166323b872dd3330856040518463ffffffff1660e01b8152600401610b7f93929190610fd1565b600060405180830381600087803b158015610b9957600080fd5b505af1158015610bad573d6000803e3d6000fd5b505050506040518060c0016040528060015481526020018473ffffffffffffffffffffffffffffffffffffffff1681526020018381526020018281526020013373ffffffffffffffffffffffffffffffffffffffff168152602001600015158152506002600060015481526020019081526020016000206000820151816000015560208201518160010160006101000a81548173ffffffffffffffffffffffffffffffffffffffff021916908373ffffffffffffffffffffffffffffffffffffffff160217905550604082015181600201556060820151816003015560808201518160040160006101000a81548173ffffffffffffffffffffffffffffffffffffffff021916908373ffffffffffffffffffffffffffffffffffffffff16021790555060a08201518160040160146101000a81548160ff0219169083151502179055509050503373ffffffffffffffffffffffffffffffffffffffff168373ffffffffffffffffffffffffffffffffffffffff167f655a0cf9c8db81512be9a76dc1c5ae5380b8816ce6ad659cd61b715e2999d59a6001548585604051610d5693929190611184565b60405180910390a36001600081905550505050565b600081359050610d7a816115e2565b92915050565b600081359050610d8f816115f9565b92915050565b600080600060608486031215610daa57600080fd5b6000610db886828701610d6b565b9350506020610dc986828701610d80565b9250506040610dda86828701610d80565b9150509250925092565b600060208284031215610df657600080fd5b6000610e0484828501610d80565b91505092915050565b610e168161134d565b82525050565b610e25816112f3565b82525050565b610e34816112e1565b82525050565b610e4381611305565b82525050565b610e528161135f565b82525050565b6000610e656028836111bb565b9150610e708261144e565b604082019050919050565b6000610e886011836111bb565b9150610e938261149d565b602082019050919050565b6000610eab601f836111bb565b9150610eb6826114c6565b602082019050919050565b6000610ece6033836111bb565b9150610ed9826114ef565b604082019050919050565b6000610ef16012836111bb565b9150610efc8261153e565b602082019050919050565b6000610f146019836111bb565b9150610f1f82611567565b602082019050919050565b6000610f376012836111bb565b9150610f4282611590565b602082019050919050565b6000610f5a601f836111bb565b9150610f65826115b9565b602082019050919050565b610f7981611343565b82525050565b6000602082019050610f946000830184610e1c565b92915050565b6000606082019050610faf6000830186610e2b565b610fbc6020830185610e0d565b610fc96040830184610f70565b949350505050565b6000606082019050610fe66000830186610e2b565b610ff36020830185610e2b565b6110006040830184610f70565b949350505050565b6000602082019050818103600083015261102181610e58565b9050919050565b6000602082019050818103600083015261104181610e7b565b9050919050565b6000602082019050818103600083015261106181610e9e565b9050919050565b6000602082019050818103600083015261108181610ec1565b9050919050565b600060208201905081810360008301526110a181610ee4565b9050919050565b600060208201905081810360008301526110c181610f07565b9050919050565b600060208201905081810360008301526110e181610f2a565b9050919050565b6000602082019050818103600083015261110181610f4d565b9050919050565b600060208201905061111d6000830184610f70565b92915050565b600060c0820190506111386000830189610f70565b6111456020830188610e49565b6111526040830187610f70565b61115f6060830186610f70565b61116c6080830185610e1c565b61117960a0830184610e3a565b979650505050505050565b60006060820190506111996000830186610f70565b6111a66020830185610f70565b6111b36040830184610f70565b949350505050565b600082825260208201905092915050565b60006111d782611343565b91506111e283611343565b9250827fffffffffffffffffffffffffffffffffffffffffffffffffffffffffffffffff03821115611217576112166113f0565b5b828201905092915050565b600061122d82611343565b915061123883611343565b9250826112485761124761141f565b5b828204905092915050565b600061125e82611343565b915061126983611343565b9250817fffffffffffffffffffffffffffffffffffffffffffffffffffffffffffffffff04831182151516156112a2576112a16113f0565b5b828202905092915050565b60006112b882611343565b91506112c383611343565b9250828210156112d6576112d56113f0565b5b828203905092915050565b60006112ec82611323565b9050919050565b60006112fe82611323565b9050919050565b60008115159050919050565b600061131c826112e1565b9050919050565b600073ffffffffffffffffffffffffffffffffffffffff82169050919050565b6000819050919050565b600061135882611383565b9050919050565b600061136a82611371565b9050919050565b600061137c82611323565b9050919050565b600061138e82611395565b9050919050565b60006113a082611323565b9050919050565b60006113b282611343565b91507fffffffffffffffffffffffffffffffffffffffffffffffffffffffffffffffff8214156113e5576113e46113f0565b5b600182019050919050565b7f4e487b7100000000000000000000000000000000000000000000000000000000600052601160045260246000fd5b7f4e487b7100000000000000000000000000000000000000000000000000000000600052601260045260246000fd5b7f4f6e6c7920746865206974656d2073656c6c65722063616e2064656c6574652060008201527f746865206974656d000000000000000000000000000000000000000000000000602082015250565b7f6974656d20616c726561647920736f6c64000000000000000000000000000000600082015250565b7f5072696365206d7573742062652067726561746572207468616e207a65726f00600082015250565b7f6e6f7420656e6f75676820657468657220746f20636f766572206974656d207060008201527f7269636520616e64206d61726b65742066656500000000000000000000000000602082015250565b7f6974656d20646f65736e27742065786973740000000000000000000000000000600082015250565b7f43616e6e6f742064656c657465206120736f6c64206974656d00000000000000600082015250565b7f4974656d20646f65736e27742065786973740000000000000000000000000000600082015250565b7f5265656e7472616e637947756172643a207265656e7472616e742063616c6c00600082015250565b6115eb81611311565b81146115f657600080fd5b50565b61160281611343565b811461160d57600080fd5b5056fea2646970667358221220133dd76541d57be4aadcf13b9b4fce0c580ff1e6f55f2c77358db0c0e8895da164736f6c63430008040033",
  "linkReferences": {},
  "deployedLinkReferences": {}
}